:020000040800F2
:100000007006002089010008910100089301000892
:100010009501000897010008990100080000000000
:100020000000000000000000000000009B0100082C
:100030009D010008000000009F0100080D0300085A
:10004000A3010008A3010008A3010008A301000800
:10005000A3010008A3010008A3010008A3010008F0
:10006000A3010008A3010008A3010008A3010008E0
:10007000A3010008A3010008A3010008A3010008D0
:10008000A3010008A3010008A3010008A3010008C0
:10009000A3010008A3010008A3010008A3010008B0
:1000A000A3010008A3010008A3010008A3010008A0
:1000B000A3010008A301000800000000A30100083C
:1000C000A30100080000000000000000A3010008D8
:1000D00000000000A3010008A301000800000000C8
:1000E000A3010008A3010008A301000800F002F822
:1000F00000F03AF80AA090E8000C82448344AAF188
:100100000107DA4501D100F02FF8AFF2090EBAE885
:100110000F0013F0010F18BFFB1A43F0010318473B
:100120007804000098040000103A24BF78C878C111
:10013000FAD8520724BF30C830C144BF04680C60ED
:10014000704700000023002400250026103A28BF35
:1001500078C1FBD8520728BF30C148BF0B60704739
:100160001FB51FBD10B510BD00F031F81146FFF7E7
:10017000F7FF00F095F900F04FF803B4FFF7F2FF36
:1001800003BC00F057F800000948804709480047C1
:10019000FEE7FEE7FEE7FEE7FEE7FEE7FEE7FEE737
:1001A000FEE7FEE704480549054A064B7047000094
:1001B00061030008ED0000087000002070060020B8
:1001C000700200207002002070477047704775462B
:1001D00000F02CF8AE4605006946534620F00700B3
:1001E000854618B020B5FFF7DDFFBDE820404FF091
:1001F00000064FF000074FF000084FF0000BAC4630
:10020000ACE8C009ACE8C009ACE8C009ACE8C0097A
:1002100021F007018D46704710B50446AFF300800A
:100220002046BDE81040FFF7A8BF00000048704717
:100230000800002001491820ABBEFEE7260002009E
:100240007047000080B500F001F880BD82B041F237
:1002500004000021C4F202000191009150F8041C36
:1002600041F4803140F8041C50F8041C01F40031C2
:100270000091019901310191009919B90199B1F5E4
:10028000A06FF1D150F8041C890354BF0021012153
:1002900000910099012936D142F20001C4F2020115
:1002A0000A6842F010020A600A6822F007020A6037
:1002B0000A6842F002020A60016801600168016098
:1002C000016841F480610160016821F47C110160E2
:1002D000016841F4E811016050F8041C41F080719C
:1002E00040F8041C50F8041C8901FBD5016821F07A
:1002F00003010160016841F002010160016801F041
:100300000C010829FAD102B07047000040F26800E1
:10031000C2F200000168002908BF70470168013976
:100320000160704740F20000C2F20000006844F62D
:10033000D351C1F26201A0FB01014FF0FF3000EB8D
:1003400091104EF2100120F07F40CEF20001486083
:1003500000208860086840F00700086070470000CF
:1003600080B541F20000C4F202000168002241F0B1
:10037000010101604168CFF6FF0211404160016850
:100380004FF6FF72CFF6F66211400160016821F46A
:1003900080210160416821F4FE0141604FF41F019A
:1003A0008160FFF74FFF4EF60850CEF200004FF08D
:1003B0000061016080BD000010B540F21840C4F239
:1003C000000030F8181C4BF6F87221F45C7120F82C
:1003D000181C4FF6FF7181820A21018230F8041C3B
:1003E00048F68C4E41F0010120F8041C30F8181C2E
:1003F00046F2600421F0800120F8181C30F8101C2F
:10040000114020F8101C018840F6080211430180B9
:1004100081881143818001894EF6EE62114001818D
:10042000B0F808C030F8142C0388818803EA0E0362
:1004300001EA0E01234321434CF6CC4404EA0C04A8
:1004400020F8142C03808180002181830184818421
:100450000185048101884FF6FB32114001808188BB
:100460001140818030F8141C21F0700120F8141C18
:1004700030F8101C21F0800120F8101C10BD000085
:100480004EF21401CEF200010A684A6040F268019F
:10049000C2F20001086000BF08680028FCD1704764
:1004A00040F20044C4F20004FFF73CFF41F21800A0
:1004B000C4F20200416841F2040541F002014160CA
:1004C0000168C4F2010541F01D0101604FF40050C4
:1004D000E860FFF771FF208C41F21111084320847E
:1004E0002088072140F0010020802868AA2261F3BB
:1004F0001750286040F60000C4F20100016862F362
:100500001F610160D0F8001462F30701C0F8001405
:100510004FF47A70FFF7B4FF4FF00050E8604FF4EB
:10052000FA60FFF7ADFF00250A2603E00136462EEC
:1005300008BF0A26002707E0A7860120FFF7A0FFD3
:100540000137B7F5002FF1D0B5EB174FF4D0B5EB6D
:10055000574F03D1F843A086EFE700BF380C0228BD
:1005600001D82787E9E7B5EB974F02D1F8432087F9
:10057000E3E7042801D8A787DFE7790C022902D82E
:10058000F843A087D9E7062886BFF843A4F84000BF
:10059000A4F84070D1E70000B80500080000002072
:1005A0000800000028010008C0050008080000201D
:1005B000680600004401000800A24A040000000090
:04000005080000ED02
:00000001FF
